{
  "_format": "hh-sol-artifact-1",
  "contractName": "UpgradedPortal",
  "sourceName": "contracts/UpgradedPortal.sol",
  "abi": [
    {
      "inputs": [],
      "stateMutability": "payable",
      "type": "constructor"
    },
    {
      "anonymous": false,
      "inputs": [
        {
          "indexed": true,
          "internalType": "address",
          "name": "from",
          "type": "address"
        },
        {
          "indexed": false,
          "internalType": "uint256",
          "name": "timestamp",
          "type": "uint256"
        },
        {
          "indexed": false,
          "internalType": "string",
          "name": "message",
          "type": "string"
        },
        {
          "indexed": false,
          "internalType": "string",
          "name": "name",
          "type": "string"
        }
      ],
      "name": "NewSignature",
      "type": "event"
    },
    {
      "inputs": [],
      "name": "getAllSignatures",
      "outputs": [
        {
          "components": [
            {
              "internalType": "address",
              "name": "signer",
              "type": "address"
            },
            {
              "internalType": "string",
              "name": "name",
              "type": "string"
            },
            {
              "internalType": "string",
              "name": "message",
              "type": "string"
            },
            {
              "internalType": "uint256",
              "name": "timestamp",
              "type": "uint256"
            }
          ],
          "internalType": "struct UpgradedPortal.Signature[]",
          "name": "",
          "type": "tuple[]"
        }
      ],
      "stateMutability": "view",
      "type": "function"
    },
    {
      "inputs": [],
      "name": "getTotalSignatures",
      "outputs": [
        {
          "internalType": "uint256",
          "name": "",
          "type": "uint256"
        }
      ],
      "stateMutability": "view",
      "type": "function"
    },
    {
      "inputs": [
        {
          "internalType": "address",
          "name": "",
          "type": "address"
        }
      ],
      "name": "lastSigned",
      "outputs": [
        {
          "internalType": "uint256",
          "name": "",
          "type": "uint256"
        }
      ],
      "stateMutability": "view",
      "type": "function"
    },
    {
      "inputs": [
        {
          "internalType": "string",
          "name": "_name",
          "type": "string"
        },
        {
          "internalType": "string",
          "name": "_message",
          "type": "string"
        }
      ],
      "name": "sign",
      "outputs": [],
      "stateMutability": "nonpayable",
      "type": "function"
    }
  ],
  "bytecode": "0x60806040526200004f6040518060400160405280601981526020017f5375702062697463682c2069276d206120636f6e7472616374000000000000008152506200005560201b620007001760201c565b620001e9565b620000f5816040516024016200006c919062000162565b6040516020818303038152906040527f41304fac000000000000000000000000000000000000000000000000000000007bffffffffffffffffffffffffffffffffffffffffffffffffffffffff19166020820180517bffffffffffffffffffffffffffffffffffffffffffffffffffffffff8381831617835250505050620000f860201b60201c565b50565b60008151905060006a636f6e736f6c652e6c6f679050602083016000808483855afa5050505050565b60006200012e8262000186565b6200013a818562000191565b93506200014c818560208601620001a2565b6200015781620001d8565b840191505092915050565b600060208201905081810360008301526200017e818462000121565b905092915050565b600081519050919050565b600082825260208201905092915050565b60005b83811015620001c2578082015181840152602081019050620001a5565b83811115620001d2576000848401525b50505050565b6000601f19601f8301169050919050565b61126880620001f96000396000f3fe608060405234801561001057600080fd5b506004361061004c5760003560e01c8063906b6d98146100515780639f613cbd1461006f578063bf09c6e21461009f578063e601dd12146100bd575b600080fd5b6100596100d9565b6040516100669190610cf1565b60405180910390f35b61008960048036038101906100849190610a1a565b6102bc565b6040516100969190610df5565b60405180910390f35b6100a76102d4565b6040516100b49190610df5565b60405180910390f35b6100d760048036038101906100d29190610a43565b6102dd565b005b60606002805480602002602001604051908101604052809291908181526020016000905b828210156102b357838290600052602060002090600402016040518060800160405290816000820160009054906101000a900473ffffffffffffffffffffffffffffffffffffffff1673ffffffffffffffffffffffffffffffffffffffff1673ffffffffffffffffffffffffffffffffffffffff16815260200160018201805461018690610ff0565b80601f01602080910402602001604051908101604052809291908181526020018280546101b290610ff0565b80156101ff5780601f106101d4576101008083540402835291602001916101ff565b820191906000526020600020905b8154815290600101906020018083116101e257829003601f168201915b5050505050815260200160028201805461021890610ff0565b80601f016020809104026020016040519081016040528092919081815260200182805461024490610ff0565b80156102915780601f1061026657610100808354040283529160200191610291565b820191906000526020600020905b81548152906001019060200180831161027457829003601f168201915b50505050508152602001600382015481525050815260200190600101906100fd565b50505050905090565b60036020528060005260406000206000915090505481565b60008054905090565b42601e600360003373ffffffffffffffffffffffffffffffffffffffff1673ffffffffffffffffffffffffffffffffffffffff1681526020019081526020016000205461032a9190610f1c565b1061036a576040517f08c379a000000000000000000000000000000000000000000000000000000000815260040161036190610d95565b60405180910390fd5b42600360003373ffffffffffffffffffffffffffffffffffffffff1673ffffffffffffffffffffffffffffffffffffffff1681526020019081526020016000208190555060016000808282546103c09190610f1c565b925050819055506104066040518060400160405280600d81526020017f257320686173207369676e65640000000000000000000000000000000000000081525033610799565b600260405180608001604052803373ffffffffffffffffffffffffffffffffffffffff16815260200184815260200183815260200142815250908060018154018082558091505060019003906000526020600020906004020160009091909190915060008201518160000160006101000a81548173ffffffffffffffffffffffffffffffffffffffff021916908373ffffffffffffffffffffffffffffffffffffffff16021790555060208201518160010190805190602001906104cb9291906108fa565b5060408201518160020190805190602001906104e89291906108fa565b506060820151816003015550506000606460015442446105089190610f1c565b6105129190610f1c565b61051c9190611053565b905061055d6040518060400160405280601681526020017f52616e646f6d20232067656e6572617465643a2025730000000000000000000081525082610835565b8060018190555060328110156106a9576105ac6040518060400160405280600781526020017f257320776f6e210000000000000000000000000000000000000000000000000081525033610799565b6000655af3107a40009050478111156105fa576040517f08c379a00000000000000000000000000000000000000000000000000000000081526004016105f190610dd5565b60405180910390fd5b60003373ffffffffffffffffffffffffffffffffffffffff168260405161062090610cdc565b60006040518083038185875af1925050503d806000811461065d576040519150601f19603f3d011682016040523d82523d6000602084013e610662565b606091505b50509050806106a6576040517f08c379a000000000000000000000000000000000000000000000000000000000815260040161069d90610db5565b60405180910390fd5b50505b3373ffffffffffffffffffffffffffffffffffffffff167f08b1f761c86121317fb15dcddfb7b664b3e8988b61fbc058744fc685e16375624284866040516106f393929190610e10565b60405180910390a2505050565b610796816040516024016107149190610d13565b6040516020818303038152906040527f41304fac000000000000000000000000000000000000000000000000000000007bffffffffffffffffffffffffffffffffffffffffffffffffffffffff19166020820180517bffffffffffffffffffffffffffffffffffffffffffffffffffffffff83818316178352505050506108d1565b50565b61083182826040516024016107af929190610d35565b6040516020818303038152906040527f319af333000000000000000000000000000000000000000000000000000000007bffffffffffffffffffffffffffffffffffffffffffffffffffffffff19166020820180517bffffffffffffffffffffffffffffffffffffffffffffffffffffffff83818316178352505050506108d1565b5050565b6108cd828260405160240161084b929190610d65565b6040516020818303038152906040527f9710a9d0000000000000000000000000000000000000000000000000000000007bffffffffffffffffffffffffffffffffffffffffffffffffffffffff19166020820180517bffffffffffffffffffffffffffffffffffffffffffffffffffffffff83818316178352505050506108d1565b5050565b60008151905060006a636f6e736f6c652e6c6f679050602083016000808483855afa5050505050565b82805461090690610ff0565b90600052602060002090601f016020900481019282610928576000855561096f565b82601f1061094157805160ff191683800117855561096f565b8280016001018555821561096f579182015b8281111561096e578251825591602001919060010190610953565b5b50905061097c9190610980565b5090565b5b80821115610999576000816000905550600101610981565b5090565b60006109b06109ab84610e7a565b610e55565b9050828152602081018484840111156109c857600080fd5b6109d3848285610fae565b509392505050565b6000813590506109ea8161121b565b92915050565b600082601f830112610a0157600080fd5b8135610a1184826020860161099d565b91505092915050565b600060208284031215610a2c57600080fd5b6000610a3a848285016109db565b91505092915050565b60008060408385031215610a5657600080fd5b600083013567ffffffffffffffff811115610a7057600080fd5b610a7c858286016109f0565b925050602083013567ffffffffffffffff811115610a9957600080fd5b610aa5858286016109f0565b9150509250929050565b6000610abb8383610c54565b905092915050565b610acc81610f72565b82525050565b610adb81610f72565b82525050565b6000610aec82610ebb565b610af68185610ede565b935083602082028501610b0885610eab565b8060005b85811015610b445784840389528151610b258582610aaf565b9450610b3083610ed1565b925060208a01995050600181019050610b0c565b50829750879550505050505092915050565b6000610b6182610ec6565b610b6b8185610efa565b9350610b7b818560208601610fbd565b610b8481611140565b840191505092915050565b6000610b9a82610ec6565b610ba48185610f0b565b9350610bb4818560208601610fbd565b610bbd81611140565b840191505092915050565b6000610bd5600f83610f0b565b9150610be082611151565b602082019050919050565b6000610bf8602783610f0b565b9150610c038261117a565b604082019050919050565b6000610c1b603583610f0b565b9150610c26826111c9565b604082019050919050565b6000610c3e600083610eef565b9150610c4982611218565b600082019050919050565b6000608083016000830151610c6c6000860182610ac3565b5060208301518482036020860152610c848282610b56565b91505060408301518482036040860152610c9e8282610b56565b9150506060830151610cb36060860182610cbe565b508091505092915050565b610cc781610fa4565b82525050565b610cd681610fa4565b82525050565b6000610ce782610c31565b9150819050919050565b60006020820190508181036000830152610d0b8184610ae1565b905092915050565b60006020820190508181036000830152610d2d8184610b8f565b905092915050565b60006040820190508181036000830152610d4f8185610b8f565b9050610d5e6020830184610ad2565b9392505050565b60006040820190508181036000830152610d7f8185610b8f565b9050610d8e6020830184610ccd565b9392505050565b60006020820190508181036000830152610dae81610bc8565b9050919050565b60006020820190508181036000830152610dce81610beb565b9050919050565b60006020820190508181036000830152610dee81610c0e565b9050919050565b6000602082019050610e0a6000830184610ccd565b92915050565b6000606082019050610e256000830186610ccd565b8181036020830152610e378185610b8f565b90508181036040830152610e4b8184610b8f565b9050949350505050565b6000610e5f610e70565b9050610e6b8282611022565b919050565b6000604051905090565b600067ffffffffffffffff821115610e9557610e94611111565b5b610e9e82611140565b9050602081019050919050565b6000819050602082019050919050565b600081519050919050565b600081519050919050565b6000602082019050919050565b600082825260208201905092915050565b600081905092915050565b600082825260208201905092915050565b600082825260208201905092915050565b6000610f2782610fa4565b9150610f3283610fa4565b9250827fffffffffffffffffffffffffffffffffffffffffffffffffffffffffffffffff03821115610f6757610f66611084565b5b828201905092915050565b6000610f7d82610f84565b9050919050565b600073ffffffffffffffffffffffffffffffffffffffff82169050919050565b6000819050919050565b82818337600083830152505050565b60005b83811015610fdb578082015181840152602081019050610fc0565b83811115610fea576000848401525b50505050565b6000600282049050600182168061100857607f821691505b6020821081141561101c5761101b6110e2565b5b50919050565b61102b82611140565b810181811067ffffffffffffffff8211171561104a57611049611111565b5b80604052505050565b600061105e82610fa4565b915061106983610fa4565b925082611079576110786110b3565b5b828206905092915050565b7f4e487b7100000000000000000000000000000000000000000000000000000000600052601160045260246000fd5b7f4e487b7100000000000000000000000000000000000000000000000000000000600052601260045260246000fd5b7f4e487b7100000000000000000000000000000000000000000000000000000000600052602260045260246000fd5b7f4e487b7100000000000000000000000000000000000000000000000000000000600052604160045260246000fd5b6000601f19601f8301169050919050565b7f57616974203330207365636f6e64730000000000000000000000000000000000600082015250565b7f4661696c656420746f207769746864726177206d6f6e65792066726f6d20636f60008201527f6e74726163742e00000000000000000000000000000000000000000000000000602082015250565b7f547279696e6720746f207769746864726177206d6f7265206d6f6e657920746860008201527f616e207468657920636f6e7472616374206861732e0000000000000000000000602082015250565b50565b61122481610f72565b811461122f57600080fd5b5056fea2646970667358221220b7eeffa2bc673da7b6d919396d9cf54c5b848f5b3ff89f02a2470b6b371b548864736f6c63430008040033",
  "linkReferences": {},
  "deployedLinkReferences": {}
}