{
  "_format": "hh-sol-artifact-1",
  "contractName": "UpgradedPortal",
  "sourceName": "contracts/UpgradedPortal.sol",
  "abi": [
    {
      "inputs": [],
      "stateMutability": "nonpayable",
      "type": "constructor"
    },
    {
      "anonymous": false,
      "inputs": [
        {
          "indexed": true,
          "internalType": "address",
          "name": "from",
          "type": "address"
        },
        {
          "indexed": false,
          "internalType": "uint256",
          "name": "timestamp",
          "type": "uint256"
        },
        {
          "indexed": false,
          "internalType": "string",
          "name": "message",
          "type": "string"
        },
        {
          "indexed": false,
          "internalType": "string",
          "name": "name",
          "type": "string"
        }
      ],
      "name": "NewSignature",
      "type": "event"
    },
    {
      "inputs": [],
      "name": "getAllSignatures",
      "outputs": [
        {
          "components": [
            {
              "internalType": "address",
              "name": "signer",
              "type": "address"
            },
            {
              "internalType": "string",
              "name": "name",
              "type": "string"
            },
            {
              "internalType": "string",
              "name": "message",
              "type": "string"
            },
            {
              "internalType": "uint256",
              "name": "timestamp",
              "type": "uint256"
            }
          ],
          "internalType": "struct UpgradedPortal.Signature[]",
          "name": "",
          "type": "tuple[]"
        }
      ],
      "stateMutability": "view",
      "type": "function"
    },
    {
      "inputs": [],
      "name": "getTotalSignatures",
      "outputs": [
        {
          "internalType": "uint256",
          "name": "",
          "type": "uint256"
        }
      ],
      "stateMutability": "view",
      "type": "function"
    },
    {
      "inputs": [
        {
          "internalType": "string",
          "name": "_name",
          "type": "string"
        },
        {
          "internalType": "string",
          "name": "_message",
          "type": "string"
        }
      ],
      "name": "sign",
      "outputs": [],
      "stateMutability": "nonpayable",
      "type": "function"
    }
  ],
  "bytecode": "0x60806040523480156200001157600080fd5b506200005d6040518060400160405280601981526020017f5375702062697463682c2069276d206120636f6e7472616374000000000000008152506200006360201b620004271760201c565b620001f7565b62000103816040516024016200007a919062000170565b6040516020818303038152906040527f41304fac000000000000000000000000000000000000000000000000000000007bffffffffffffffffffffffffffffffffffffffffffffffffffffffff19166020820180517bffffffffffffffffffffffffffffffffffffffffffffffffffffffff83818316178352505050506200010660201b60201c565b50565b60008151905060006a636f6e736f6c652e6c6f679050602083016000808483855afa5050505050565b60006200013c8262000194565b6200014881856200019f565b93506200015a818560208601620001b0565b6200016581620001e6565b840191505092915050565b600060208201905081810360008301526200018c81846200012f565b905092915050565b600081519050919050565b600082825260208201905092915050565b60005b83811015620001d0578082015181840152602081019050620001b3565b83811115620001e0576000848401525b50505050565b6000601f19601f8301169050919050565b610c3880620002076000396000f3fe608060405234801561001057600080fd5b50600436106100415760003560e01c8063906b6d9814610046578063bf09c6e214610064578063e601dd1214610082575b600080fd5b61004e61009e565b60405161005b919061089d565b60405180910390f35b61006c610281565b6040516100799190610911565b60405180910390f35b61009c60048036038101906100979190610690565b61028a565b005b60606001805480602002602001604051908101604052809291908181526020016000905b8282101561027857838290600052602060002090600402016040518060800160405290816000820160009054906101000a900473ffffffffffffffffffffffffffffffffffffffff1673ffffffffffffffffffffffffffffffffffffffff1673ffffffffffffffffffffffffffffffffffffffff16815260200160018201805461014b90610b01565b80601f016020809104026020016040519081016040528092919081815260200182805461017790610b01565b80156101c45780601f10610199576101008083540402835291602001916101c4565b820191906000526020600020905b8154815290600101906020018083116101a757829003601f168201915b505050505081526020016002820180546101dd90610b01565b80601f016020809104026020016040519081016040528092919081815260200182805461020990610b01565b80156102565780601f1061022b57610100808354040283529160200191610256565b820191906000526020600020905b81548152906001019060200180831161023957829003601f168201915b50505050508152602001600382015481525050815260200190600101906100c2565b50505050905090565b60008054905090565b600160008082825461029c9190610a2d565b925050819055506102e26040518060400160405280600d81526020017f257320686173207369676e656400000000000000000000000000000000000000815250336104c0565b600160405180608001604052803373ffffffffffffffffffffffffffffffffffffffff16815260200184815260200183815260200142815250908060018154018082558091505060019003906000526020600020906004020160009091909190915060008201518160000160006101000a81548173ffffffffffffffffffffffffffffffffffffffff021916908373ffffffffffffffffffffffffffffffffffffffff16021790555060208201518160010190805190602001906103a7929190610585565b5060408201518160020190805190602001906103c4929190610585565b506060820151816003015550503373ffffffffffffffffffffffffffffffffffffffff167f08b1f761c86121317fb15dcddfb7b664b3e8988b61fbc058744fc685e163756242838560405161041b9392919061092c565b60405180910390a25050565b6104bd8160405160240161043b91906108bf565b6040516020818303038152906040527f41304fac000000000000000000000000000000000000000000000000000000007bffffffffffffffffffffffffffffffffffffffffffffffffffffffff19166020820180517bffffffffffffffffffffffffffffffffffffffffffffffffffffffff838183161783525050505061055c565b50565b61055882826040516024016104d69291906108e1565b6040516020818303038152906040527f319af333000000000000000000000000000000000000000000000000000000007bffffffffffffffffffffffffffffffffffffffffffffffffffffffff19166020820180517bffffffffffffffffffffffffffffffffffffffffffffffffffffffff838183161783525050505061055c565b5050565b60008151905060006a636f6e736f6c652e6c6f679050602083016000808483855afa5050505050565b82805461059190610b01565b90600052602060002090601f0160209004810192826105b357600085556105fa565b82601f106105cc57805160ff19168380011785556105fa565b828001600101855582156105fa579182015b828111156105f95782518255916020019190600101906105de565b5b509050610607919061060b565b5090565b5b8082111561062457600081600090555060010161060c565b5090565b600061063b61063684610996565b610971565b90508281526020810184848401111561065357600080fd5b61065e848285610abf565b509392505050565b600082601f83011261067757600080fd5b8135610687848260208601610628565b91505092915050565b600080604083850312156106a357600080fd5b600083013567ffffffffffffffff8111156106bd57600080fd5b6106c985828601610666565b925050602083013567ffffffffffffffff8111156106e657600080fd5b6106f285828601610666565b9150509250929050565b60006107088383610815565b905092915050565b61071981610a83565b82525050565b61072881610a83565b82525050565b6000610739826109d7565b61074381856109fa565b935083602082028501610755856109c7565b8060005b85811015610791578484038952815161077285826106fc565b945061077d836109ed565b925060208a01995050600181019050610759565b50829750879550505050505092915050565b60006107ae826109e2565b6107b88185610a0b565b93506107c8818560208601610ace565b6107d181610bf1565b840191505092915050565b60006107e7826109e2565b6107f18185610a1c565b9350610801818560208601610ace565b61080a81610bf1565b840191505092915050565b600060808301600083015161082d6000860182610710565b506020830151848203602086015261084582826107a3565b9150506040830151848203604086015261085f82826107a3565b9150506060830151610874606086018261087f565b508091505092915050565b61088881610ab5565b82525050565b61089781610ab5565b82525050565b600060208201905081810360008301526108b7818461072e565b905092915050565b600060208201905081810360008301526108d981846107dc565b905092915050565b600060408201905081810360008301526108fb81856107dc565b905061090a602083018461071f565b9392505050565b6000602082019050610926600083018461088e565b92915050565b6000606082019050610941600083018661088e565b818103602083015261095381856107dc565b9050818103604083015261096781846107dc565b9050949350505050565b600061097b61098c565b90506109878282610b33565b919050565b6000604051905090565b600067ffffffffffffffff8211156109b1576109b0610bc2565b5b6109ba82610bf1565b9050602081019050919050565b6000819050602082019050919050565b600081519050919050565b600081519050919050565b6000602082019050919050565b600082825260208201905092915050565b600082825260208201905092915050565b600082825260208201905092915050565b6000610a3882610ab5565b9150610a4383610ab5565b9250827fffffffffffffffffffffffffffffffffffffffffffffffffffffffffffffffff03821115610a7857610a77610b64565b5b828201905092915050565b6000610a8e82610a95565b9050919050565b600073ffffffffffffffffffffffffffffffffffffffff82169050919050565b6000819050919050565b82818337600083830152505050565b60005b83811015610aec578082015181840152602081019050610ad1565b83811115610afb576000848401525b50505050565b60006002820490506001821680610b1957607f821691505b60208210811415610b2d57610b2c610b93565b5b50919050565b610b3c82610bf1565b810181811067ffffffffffffffff82111715610b5b57610b5a610bc2565b5b80604052505050565b7f4e487b7100000000000000000000000000000000000000000000000000000000600052601160045260246000fd5b7f4e487b7100000000000000000000000000000000000000000000000000000000600052602260045260246000fd5b7f4e487b7100000000000000000000000000000000000000000000000000000000600052604160045260246000fd5b6000601f19601f830116905091905056fea26469706673582212204e34d51eb69d9425dfe5de21eff7bb459d48a959f72b7d960e09aa654d16c95f64736f6c63430008040033",
  "linkReferences": {},
  "deployedLinkReferences": {}
}